{
  "contractName": "DramaSocmed",
  "abi": [
    {
      "anonymous": false,
      "inputs": [
        {
          "indexed": false,
          "internalType": "uint256",
          "name": "id",
          "type": "uint256"
        },
        {
          "indexed": false,
          "internalType": "string",
          "name": "kode",
          "type": "string"
        },
        {
          "indexed": false,
          "internalType": "string",
          "name": "deskripsi",
          "type": "string"
        },
        {
          "indexed": true,
          "internalType": "address",
          "name": "pembuat",
          "type": "address"
        }
      ],
      "name": "DramaBaru",
      "type": "event"
    },
    {
      "anonymous": false,
      "inputs": [
        {
          "indexed": false,
          "internalType": "string",
          "name": "link",
          "type": "string"
        },
        {
          "indexed": false,
          "internalType": "uint256",
          "name": "idDrama",
          "type": "uint256"
        },
        {
          "indexed": true,
          "internalType": "address",
          "name": "pembuat",
          "type": "address"
        }
      ],
      "name": "HapusTopik",
      "type": "event"
    },
    {
      "anonymous": false,
      "inputs": [
        {
          "indexed": false,
          "internalType": "string",
          "name": "link",
          "type": "string"
        },
        {
          "indexed": false,
          "internalType": "uint256",
          "name": "idDrama",
          "type": "uint256"
        },
        {
          "indexed": true,
          "internalType": "address",
          "name": "pembuat",
          "type": "address"
        }
      ],
      "name": "TopikBaru",
      "type": "event"
    },
    {
      "inputs": [
        {
          "internalType": "uint256",
          "name": "",
          "type": "uint256"
        }
      ],
      "name": "drama",
      "outputs": [
        {
          "internalType": "string",
          "name": "kode",
          "type": "string"
        },
        {
          "internalType": "string",
          "name": "deskripsi",
          "type": "string"
        },
        {
          "internalType": "address",
          "name": "pembuat",
          "type": "address"
        },
        {
          "internalType": "uint256",
          "name": "waktu",
          "type": "uint256"
        }
      ],
      "stateMutability": "view",
      "type": "function"
    },
    {
      "inputs": [],
      "name": "lastId",
      "outputs": [
        {
          "internalType": "uint256",
          "name": "",
          "type": "uint256"
        }
      ],
      "stateMutability": "view",
      "type": "function"
    },
    {
      "inputs": [
        {
          "internalType": "uint256",
          "name": "",
          "type": "uint256"
        },
        {
          "internalType": "uint256",
          "name": "",
          "type": "uint256"
        }
      ],
      "name": "topics",
      "outputs": [
        {
          "internalType": "string",
          "name": "link",
          "type": "string"
        },
        {
          "internalType": "address",
          "name": "pembuat",
          "type": "address"
        },
        {
          "internalType": "uint256",
          "name": "waktu",
          "type": "uint256"
        }
      ],
      "stateMutability": "view",
      "type": "function"
    },
    {
      "inputs": [
        {
          "internalType": "string",
          "name": "kode",
          "type": "string"
        },
        {
          "internalType": "string",
          "name": "deskripsi",
          "type": "string"
        }
      ],
      "name": "tambahDramaBaru",
      "outputs": [
        {
          "internalType": "uint256",
          "name": "",
          "type": "uint256"
        }
      ],
      "stateMutability": "nonpayable",
      "type": "function"
    },
    {
      "inputs": [
        {
          "internalType": "string",
          "name": "link",
          "type": "string"
        },
        {
          "internalType": "uint256",
          "name": "idDrama",
          "type": "uint256"
        }
      ],
      "name": "tambahTopikDrama",
      "outputs": [
        {
          "internalType": "uint256",
          "name": "",
          "type": "uint256"
        }
      ],
      "stateMutability": "nonpayable",
      "type": "function"
    },
    {
      "inputs": [
        {
          "internalType": "uint256",
          "name": "idDrama",
          "type": "uint256"
        },
        {
          "internalType": "uint256",
          "name": "idTopik",
          "type": "uint256"
        }
      ],
      "name": "hapusTopikDrama",
      "outputs": [
        {
          "internalType": "bool",
          "name": "",
          "type": "bool"
        }
      ],
      "stateMutability": "nonpayable",
      "type": "function"
    },
    {
      "inputs": [],
      "name": "destroyContract",
      "outputs": [],
      "stateMutability": "nonpayable",
      "type": "function"
    }
  ],
  "bytecode": "0x608060405234801561001057600080fd5b50336000806101000a81548173ffffffffffffffffffffffffffffffffffffffff021916908373ffffffffffffffffffffffffffffffffffffffff160217905550611132806100606000396000f3fe608060405234801561001057600080fd5b506004361061007d5760003560e01c80634498548f1161005b5780634498548f146102405780639c9e485314610377578063c1292cc314610450578063ed2e39a71461046e5761007d565b8063092a5cce146100825780633308315d1461008c578063410fd166146101f2575b600080fd5b61008a610543565b005b6101dc600480360360408110156100a257600080fd5b81019080803590602001906401000000008111156100bf57600080fd5b8201836020820111156100d157600080fd5b803590602001918460018302840111640100000000831117156100f357600080fd5b91908080601f016020809104026020016040519081016040528093929190818152602001838380828437600081840152601f19601f8201169050808301925050505050505091929192908035906020019064010000000081111561015657600080fd5b82018360208201111561016857600080fd5b8035906020019184600183028401116401000000008311171561018a57600080fd5b91908080601f016020809104026020016040519081016040528093929190818152602001838380828437600081840152601f19601f82011690508083019250505050505050919291929050505061061d565b6040518082815260200191505060405180910390f35b6102286004803603604081101561020857600080fd5b810190808035906020019092919080359060200190929190505050610845565b60405180821515815260200191505060405180910390f35b61026c6004803603602081101561025657600080fd5b8101908080359060200190929190505050610b37565b6040518080602001806020018573ffffffffffffffffffffffffffffffffffffffff168152602001848152602001838103835287818151815260200191508051906020019080838360005b838110156102d25780820151818401526020810190506102b7565b50505050905090810190601f1680156102ff5780820380516001836020036101000a031916815260200191505b50838103825286818151815260200191508051906020019080838360005b8381101561033857808201518184015260208101905061031d565b50505050905090810190601f1680156103655780820380516001836020036101000a031916815260200191505b50965050505050505060405180910390f35b61043a6004803603604081101561038d57600080fd5b81019080803590602001906401000000008111156103aa57600080fd5b8201836020820111156103bc57600080fd5b803590602001918460018302840111640100000000831117156103de57600080fd5b91908080601f016020809104026020016040519081016040528093929190818152602001838380828437600081840152601f19601f82011690508083019250505050505050919291929080359060200190929190505050610cb7565b6040518082815260200191505060405180910390f35b610458610f04565b6040518082815260200191505060405180910390f35b6104a46004803603604081101561048457600080fd5b810190808035906020019092919080359060200190929190505050610f0a565b60405180806020018473ffffffffffffffffffffffffffffffffffffffff168152602001838152602001828103825285818151815260200191508051906020019080838360005b838110156105065780820151818401526020810190506104eb565b50505050905090810190601f1680156105335780820380516001836020036101000a031916815260200191505b5094505050505060405180910390f35b60008054906101000a900473ffffffffffffffffffffffffffffffffffffffff1673ffffffffffffffffffffffffffffffffffffffff163373ffffffffffffffffffffffffffffffffffffffff1614610604576040517f08c379a00000000000000000000000000000000000000000000000000000000081526004018080602001828103825260208152602001807f596f7520646f6e277420686176652061636365737320746f20646f207468697381525060200191505060405180910390fd5b3373ffffffffffffffffffffffffffffffffffffffff16ff5b60008060405180608001604052808581526020018481526020013373ffffffffffffffffffffffffffffffffffffffff16815260200142815250905060016000815480929190600101919050555080600260006001548152602001908152602001600020600082015181600001908051906020019061069d929190611009565b5060208201518160010190805190602001906106ba929190611009565b5060408201518160020160006101000a81548173ffffffffffffffffffffffffffffffffffffffff021916908373ffffffffffffffffffffffffffffffffffffffff160217905550606082015181600301559050503373ffffffffffffffffffffffffffffffffffffffff167fe6d6104dc577db33dfeaadadf5f4e4050968ec46a00a9e7dd029736c15806a166001548686604051808481526020018060200180602001838103835285818151815260200191508051906020019080838360005b8381101561079657808201518184015260208101905061077b565b50505050905090810190601f1680156107c35780820380516001836020036101000a031916815260200191505b50838103825284818151815260200191508051906020019080838360005b838110156107fc5780820151818401526020810190506107e1565b50505050905090810190601f1680156108295780820380516001836020036101000a031916815260200191505b509550505050505060405180910390a260015491505092915050565b60003373ffffffffffffffffffffffffffffffffffffffff1660036000858152602001908152602001600020838154811061087c57fe5b906000526020600020906003020160010160009054906101000a900473ffffffffffffffffffffffffffffffffffffffff1673ffffffffffffffffffffffffffffffffffffffff1614610937576040517f08c379a00000000000000000000000000000000000000000000000000000000081526004018080602001828103825260198152602001807f596f7520646f6e27742068617665207065726d697373696f6e0000000000000081525060200191505060405180910390fd5b600060036000858152602001908152602001600020838154811061095757fe5b90600052602060002090600302016000018054600181600116156101000203166002900480601f0160208091040260200160405190810160405280929190818152602001828054600181600116156101000203166002900480156109fc5780601f106109d1576101008083540402835291602001916109fc565b820191906000526020600020905b8154815290600101906020018083116109df57829003601f168201915b50505050509050600360008581526020019081526020016000208381548110610a2157fe5b906000526020600020906003020160008082016000610a409190611097565b6001820160006101000a81549073ffffffffffffffffffffffffffffffffffffffff0219169055600282016000905550503373ffffffffffffffffffffffffffffffffffffffff167f35afb10c40f7c2c38ae9705f5143ca0dfdfdaa51e3e9a2ee12ad43eed420bd7882866040518080602001838152602001828103825284818151815260200191508051906020019080838360005b83811015610af1578082015181840152602081019050610ad6565b50505050905090810190601f168015610b1e5780820380516001836020036101000a031916815260200191505b50935050505060405180910390a2600191505092915050565b6002602052806000526040600020600091509050806000018054600181600116156101000203166002900480601f016020809104026020016040519081016040528092919081815260200182805460018160011615610100020316600290048015610be35780601f10610bb857610100808354040283529160200191610be3565b820191906000526020600020905b815481529060010190602001808311610bc657829003601f168201915b505050505090806001018054600181600116156101000203166002900480601f016020809104026020016040519081016040528092919081815260200182805460018160011615610100020316600290048015610c815780601f10610c5657610100808354040283529160200191610c81565b820191906000526020600020905b815481529060010190602001808311610c6457829003601f168201915b5050505050908060020160009054906101000a900473ffffffffffffffffffffffffffffffffffffffff16908060030154905084565b600080600260008481526020019081526020016000206003015411610d44576040517f08c379a00000000000000000000000000000000000000000000000000000000081526004018080602001828103825260088152602001807f4e6f206472616d6100000000000000000000000000000000000000000000000081525060200191505060405180910390fd5b600060405180606001604052808581526020013373ffffffffffffffffffffffffffffffffffffffff168152602001428152509050600360008481526020019081526020016000208190806001815401808255809150506001900390600052602060002090600302016000909190919091506000820151816000019080519060200190610dd2929190611009565b5060208201518160010160006101000a81548173ffffffffffffffffffffffffffffffffffffffff021916908373ffffffffffffffffffffffffffffffffffffffff1602179055506040820151816002015550503373ffffffffffffffffffffffffffffffffffffffff167fff9c5d5aad3506b6ae1e42eefcbf9e8ef2ec3489689c8a7abdc682f0fa244f6a85856040518080602001838152602001828103825284818151815260200191508051906020019080838360005b83811015610ea6578082015181840152602081019050610e8b565b50505050905090810190601f168015610ed35780820380516001836020036101000a031916815260200191505b50935050505060405180910390a2600160036000858152602001908152602001600020805490500391505092915050565b60015481565b60036020528160005260406000208181548110610f2657600080fd5b906000526020600020906003020160009150915050806000018054600181600116156101000203166002900480601f016020809104026020016040519081016040528092919081815260200182805460018160011615610100020316600290048015610fd35780601f10610fa857610100808354040283529160200191610fd3565b820191906000526020600020905b815481529060010190602001808311610fb657829003601f168201915b5050505050908060010160009054906101000a900473ffffffffffffffffffffffffffffffffffffffff16908060020154905083565b828054600181600116156101000203166002900490600052602060002090601f01602090048101928261103f5760008555611086565b82601f1061105857805160ff1916838001178555611086565b82800160010185558215611086579182015b8281111561108557825182559160200191906001019061106a565b5b50905061109391906110df565b5090565b50805460018160011615610100020316600290046000825580601f106110bd57506110dc565b601f0160209004906000526020600020908101906110db91906110df565b5b50565b5b808211156110f85760008160009055506001016110e0565b509056fea26469706673582212201ec2b1efd5589fd21e90fe158c972fd317e4b8cf753d7396ad6f73928f5ce04064736f6c63430007060033",
  "immutableReferences": {},
  "source": "// SPDX-License-Identifier: MIT\npragma solidity ^0.7.0;\n\ncontract Ownable {\n    address _owner;\n\n    constructor() {\n        _owner = msg.sender;\n    }\n\n    modifier onlyOwner {\n        require(msg.sender == _owner, \"You don't have access to do this\");\n        _;\n    }\n}\n\ncontract DramaSocmed is Ownable {\n    event DramaBaru(uint256 id, string kode, string deskripsi, address indexed pembuat);\n    event TopikBaru(string link, uint256 idDrama, address indexed pembuat);\n    event HapusTopik(string link, uint256 idDrama, address indexed pembuat);\n\n    struct Drama {\n        string kode;\n        string deskripsi;\n        address pembuat;\n        uint256 waktu;\n    }\n\n    struct Topic {\n        string link;\n        address pembuat;\n        uint256 waktu;\n    }\n\n    uint256 public lastId;\n    mapping(uint256 => Drama) public drama;\n    mapping(uint256 => Topic[]) public topics;\n\n    function tambahDramaBaru(string memory kode, string memory deskripsi) external returns (uint256) {\n        Drama memory newDrama = Drama({\n            kode: kode,\n            deskripsi: deskripsi,\n            pembuat: msg.sender,\n            waktu: block.timestamp\n        });\n\n        lastId++;\n        drama[lastId] = newDrama;\n\n        emit DramaBaru(lastId, kode, deskripsi, msg.sender);\n\n        return lastId;\n    }\n\n    function tambahTopikDrama(string memory link, uint256 idDrama) external returns (uint256) {\n        require(drama[idDrama].waktu > 0, \"No drama\");\n        \n        Topic memory newTopic = Topic({\n            link: link,\n            pembuat: msg.sender,\n            waktu: block.timestamp\n        });\n\n        topics[idDrama].push(newTopic);\n\n        emit TopikBaru(link, idDrama, msg.sender);\n\n        return topics[idDrama].length - 1;\n    }\n\n    function hapusTopikDrama(uint256 idDrama, uint256 idTopik) external returns (bool) {\n        require(topics[idDrama][idTopik].pembuat == msg.sender, \"You don't have permission\");\n\n        string memory link = topics[idDrama][idTopik].link;\n        delete topics[idDrama][idTopik];\n\n        emit HapusTopik(link, idDrama, msg.sender);\n\n        return true;\n    }\n\n    function destroyContract() public onlyOwner {\n        selfdestruct(msg.sender);\n    }\n}",
  "sourcePath": "/home/superxdev/Projects/open-source/drama-socmed/contracts/DramaSocmed.sol",
  "compiler": {
    "name": "solc",
    "version": "0.7.6+commit.7338295f.Emscripten.clang"
  },
  "schemaVersion": "3.4.16",
  "updatedAt": "2024-05-26T08:06:52.913Z",
  "devdoc": {
    "kind": "dev",
    "methods": {},
    "version": 1
  },
  "userdoc": {
    "kind": "user",
    "methods": {},
    "version": 1
  }
}