{
  "contractName": "DramaSocmed",
  "abi": [
    {
      "anonymous": false,
      "inputs": [
        {
          "indexed": false,
          "internalType": "uint256",
          "name": "id",
          "type": "uint256"
        },
        {
          "indexed": false,
          "internalType": "string",
          "name": "kode",
          "type": "string"
        },
        {
          "indexed": false,
          "internalType": "string",
          "name": "deskripsi",
          "type": "string"
        },
        {
          "indexed": true,
          "internalType": "address",
          "name": "pembuat",
          "type": "address"
        }
      ],
      "name": "DramaBaru",
      "type": "event"
    },
    {
      "anonymous": false,
      "inputs": [
        {
          "indexed": false,
          "internalType": "uint256",
          "name": "id",
          "type": "uint256"
        },
        {
          "indexed": true,
          "internalType": "address",
          "name": "penghapus",
          "type": "address"
        }
      ],
      "name": "HapusDrama",
      "type": "event"
    },
    {
      "anonymous": false,
      "inputs": [
        {
          "indexed": false,
          "internalType": "string",
          "name": "link",
          "type": "string"
        },
        {
          "indexed": false,
          "internalType": "uint256",
          "name": "idDrama",
          "type": "uint256"
        },
        {
          "indexed": true,
          "internalType": "address",
          "name": "pembuat",
          "type": "address"
        }
      ],
      "name": "HapusTopik",
      "type": "event"
    },
    {
      "anonymous": false,
      "inputs": [],
      "name": "RenounceOwnership",
      "type": "event"
    },
    {
      "anonymous": false,
      "inputs": [
        {
          "indexed": false,
          "internalType": "string",
          "name": "link",
          "type": "string"
        },
        {
          "indexed": false,
          "internalType": "uint256",
          "name": "idDrama",
          "type": "uint256"
        },
        {
          "indexed": true,
          "internalType": "address",
          "name": "pembuat",
          "type": "address"
        }
      ],
      "name": "TopikBaru",
      "type": "event"
    },
    {
      "anonymous": false,
      "inputs": [
        {
          "indexed": false,
          "internalType": "address",
          "name": "newOwner",
          "type": "address"
        }
      ],
      "name": "TransferOWnership",
      "type": "event"
    },
    {
      "inputs": [],
      "name": "_owner",
      "outputs": [
        {
          "internalType": "address",
          "name": "",
          "type": "address"
        }
      ],
      "stateMutability": "view",
      "type": "function"
    },
    {
      "inputs": [
        {
          "internalType": "uint256",
          "name": "",
          "type": "uint256"
        }
      ],
      "name": "drama",
      "outputs": [
        {
          "internalType": "string",
          "name": "kode",
          "type": "string"
        },
        {
          "internalType": "string",
          "name": "deskripsi",
          "type": "string"
        },
        {
          "internalType": "address",
          "name": "pembuat",
          "type": "address"
        },
        {
          "internalType": "uint256",
          "name": "waktu",
          "type": "uint256"
        }
      ],
      "stateMutability": "view",
      "type": "function"
    },
    {
      "inputs": [],
      "name": "lastId",
      "outputs": [
        {
          "internalType": "uint256",
          "name": "",
          "type": "uint256"
        }
      ],
      "stateMutability": "view",
      "type": "function"
    },
    {
      "inputs": [],
      "name": "renounceOwnership",
      "outputs": [],
      "stateMutability": "nonpayable",
      "type": "function"
    },
    {
      "inputs": [
        {
          "internalType": "uint256",
          "name": "",
          "type": "uint256"
        },
        {
          "internalType": "uint256",
          "name": "",
          "type": "uint256"
        }
      ],
      "name": "topics",
      "outputs": [
        {
          "internalType": "string",
          "name": "link",
          "type": "string"
        },
        {
          "internalType": "address",
          "name": "pembuat",
          "type": "address"
        },
        {
          "internalType": "uint256",
          "name": "waktu",
          "type": "uint256"
        }
      ],
      "stateMutability": "view",
      "type": "function"
    },
    {
      "inputs": [
        {
          "internalType": "address",
          "name": "ownerAddress",
          "type": "address"
        }
      ],
      "name": "transferOwnership",
      "outputs": [],
      "stateMutability": "nonpayable",
      "type": "function"
    },
    {
      "inputs": [
        {
          "internalType": "string",
          "name": "kode",
          "type": "string"
        },
        {
          "internalType": "string",
          "name": "deskripsi",
          "type": "string"
        }
      ],
      "name": "tambahDramaBaru",
      "outputs": [
        {
          "internalType": "uint256",
          "name": "",
          "type": "uint256"
        }
      ],
      "stateMutability": "nonpayable",
      "type": "function"
    },
    {
      "inputs": [
        {
          "internalType": "string",
          "name": "link",
          "type": "string"
        },
        {
          "internalType": "uint256",
          "name": "idDrama",
          "type": "uint256"
        }
      ],
      "name": "tambahTopikDrama",
      "outputs": [
        {
          "internalType": "uint256",
          "name": "",
          "type": "uint256"
        }
      ],
      "stateMutability": "nonpayable",
      "type": "function"
    },
    {
      "inputs": [
        {
          "internalType": "uint256",
          "name": "idDrama",
          "type": "uint256"
        },
        {
          "internalType": "uint256",
          "name": "idTopik",
          "type": "uint256"
        }
      ],
      "name": "hapusTopikDrama",
      "outputs": [
        {
          "internalType": "bool",
          "name": "",
          "type": "bool"
        }
      ],
      "stateMutability": "nonpayable",
      "type": "function"
    },
    {
      "inputs": [
        {
          "internalType": "uint256",
          "name": "idDrama",
          "type": "uint256"
        }
      ],
      "name": "hapusDrama",
      "outputs": [
        {
          "internalType": "bool",
          "name": "",
          "type": "bool"
        }
      ],
      "stateMutability": "nonpayable",
      "type": "function"
    }
  ],
  "bytecode": "0x6080604052348015600e575f5ffd5b50335f5f6101000a81548173ffffffffffffffffffffffffffffffffffffffff021916908373ffffffffffffffffffffffffffffffffffffffff160217905550611b6c8061005b5f395ff3fe608060405234801561000f575f5ffd5b506004361061009c575f3560e01c8063b2bdfa7b11610064578063b2bdfa7b1461016d578063c1292cc31461018b578063e816e57f146101a9578063ed2e39a7146101d9578063f2fde38b1461020b5761009c565b80633308315d146100a0578063410fd166146100d05780634498548f14610100578063715018a6146101335780639c9e48531461013d575b5f5ffd5b6100ba60048036038101906100b591906111bc565b610227565b6040516100c7919061124a565b60405180910390f35b6100ea60048036038101906100e5919061128d565b61036a565b6040516100f791906112e5565b60405180910390f35b61011a600480360381019061011591906112fe565b6105ad565b60405161012a94939291906113c8565b60405180910390f35b61013b610704565b005b61015760048036038101906101529190611419565b6107ff565b604051610164919061124a565b60405180910390f35b6101756109a2565b6040516101829190611473565b60405180910390f35b6101936109c6565b6040516101a0919061124a565b60405180910390f35b6101c360048036038101906101be91906112fe565b6109cc565b6040516101d091906112e5565b60405180910390f35b6101f360048036038101906101ee919061128d565b610d4a565b6040516102029392919061148c565b60405180910390f35b610225600480360381019061022091906114f2565b610e2f565b005b5f5f60405180608001604052808581526020018481526020013373ffffffffffffffffffffffffffffffffffffffff16815260200142815250905060015f8154809291906102749061154a565b91905055508060025f60015481526020019081526020015f205f820151815f0190816102a0919061178e565b5060208201518160010190816102b6919061178e565b506040820151816002015f6101000a81548173ffffffffffffffffffffffffffffffffffffffff021916908373ffffffffffffffffffffffffffffffffffffffff160217905550606082015181600301559050503373ffffffffffffffffffffffffffffffffffffffff167fe6d6104dc577db33dfeaadadf5f4e4050968ec46a00a9e7dd029736c15806a1660015486866040516103569392919061185d565b60405180910390a260015491505092915050565b5f3373ffffffffffffffffffffffffffffffffffffffff1660035f8581526020019081526020015f2083815481106103a5576103a46118a0565b5b905f5260205f2090600302016001015f9054906101000a900473ffffffffffffffffffffffffffffffffffffffff1673ffffffffffffffffffffffffffffffffffffffff161461042a576040517f08c379a000000000000000000000000000000000000000000000000000000000815260040161042190611917565b60405180910390fd5b5f60035f8581526020019081526020015f20838154811061044e5761044d6118a0565b5b905f5260205f2090600302015f018054610467906115be565b80601f0160208091040260200160405190810160405280929190818152602001828054610493906115be565b80156104de5780601f106104b5576101008083540402835291602001916104de565b820191905f5260205f20905b8154815290600101906020018083116104c157829003601f168201915b5050505050905060035f8581526020019081526020015f208381548110610508576105076118a0565b5b905f5260205f2090600302015f5f82015f6105239190610fa4565b600182015f6101000a81549073ffffffffffffffffffffffffffffffffffffffff0219169055600282015f905550503373ffffffffffffffffffffffffffffffffffffffff167f35afb10c40f7c2c38ae9705f5143ca0dfdfdaa51e3e9a2ee12ad43eed420bd78828660405161059a929190611935565b60405180910390a2600191505092915050565b6002602052805f5260405f205f91509050805f0180546105cc906115be565b80601f01602080910402602001604051908101604052809291908181526020018280546105f8906115be565b80156106435780601f1061061a57610100808354040283529160200191610643565b820191905f5260205f20905b81548152906001019060200180831161062657829003601f168201915b505050505090806001018054610658906115be565b80601f0160208091040260200160405190810160405280929190818152602001828054610684906115be565b80156106cf5780601f106106a6576101008083540402835291602001916106cf565b820191905f5260205f20905b8154815290600101906020018083116106b257829003601f168201915b505050505090806002015f9054906101000a900473ffffffffffffffffffffffffffffffffffffffff16908060030154905084565b5f5f9054906101000a900473ffffffffffffffffffffffffffffffffffffffff1673ffffffffffffffffffffffffffffffffffffffff163373ffffffffffffffffffffffffffffffffffffffff1614610792576040517f08c379a0000000000000000000000000000000000000000000000000000000008152600401610789906119ad565b60405180910390fd5b5f5f5f6101000a81548173ffffffffffffffffffffffffffffffffffffffff021916908373ffffffffffffffffffffffffffffffffffffffff1602179055507f6e4ee811a17215345b89e3506064ff2d62f4feedff3566e9d09219cda7e8cadb60405160405180910390a1565b5f5f60025f8481526020019081526020015f206003015411610856576040517f08c379a000000000000000000000000000000000000000000000000000000000815260040161084d90611a15565b60405180910390fd5b5f60405180606001604052808581526020013373ffffffffffffffffffffffffffffffffffffffff16815260200142815250905060035f8481526020019081526020015f2081908060018154018082558091505060019003905f5260205f2090600302015f909190919091505f820151815f0190816108d5919061178e565b506020820151816001015f6101000a81548173ffffffffffffffffffffffffffffffffffffffff021916908373ffffffffffffffffffffffffffffffffffffffff1602179055506040820151816002015550503373ffffffffffffffffffffffffffffffffffffffff167fff9c5d5aad3506b6ae1e42eefcbf9e8ef2ec3489689c8a7abdc682f0fa244f6a8585604051610970929190611935565b60405180910390a2600160035f8581526020019081526020015f20805490506109999190611a33565b91505092915050565b5f5f9054906101000a900473ffffffffffffffffffffffffffffffffffffffff1681565b60015481565b5f5f60025f8481526020019081526020015f206040518060800160405290815f820180546109f9906115be565b80601f0160208091040260200160405190810160405280929190818152602001828054610a25906115be565b8015610a705780601f10610a4757610100808354040283529160200191610a70565b820191905f5260205f20905b815481529060010190602001808311610a5357829003601f168201915b50505050508152602001600182018054610a89906115be565b80601f0160208091040260200160405190810160405280929190818152602001828054610ab5906115be565b8015610b005780601f10610ad757610100808354040283529160200191610b00565b820191905f5260205f20905b815481529060010190602001808311610ae357829003601f168201915b50505050508152602001600282015f9054906101000a900473ffffffffffffffffffffffffffffffffffffffff1673ffffffffffffffffffffffffffffffffffffffff1673ffffffffffffffffffffffffffffffffffffffff16815260200160038201548152505090505f816060015111610bb0576040517f08c379a0000000000000000000000000000000000000000000000000000000008152600401610ba790611ab0565b60405180910390fd5b806040015173ffffffffffffffffffffffffffffffffffffffff163373ffffffffffffffffffffffffffffffffffffffff161480610c3957505f5f9054906101000a900473ffffffffffffffffffffffffffffffffffffffff1673ffffffffffffffffffffffffffffffffffffffff163373ffffffffffffffffffffffffffffffffffffffff16145b610c78576040517f08c379a0000000000000000000000000000000000000000000000000000000008152600401610c6f90611917565b60405180910390fd5b60025f8481526020019081526020015f205f5f82015f610c989190610fa4565b600182015f610ca79190610fa4565b600282015f6101000a81549073ffffffffffffffffffffffffffffffffffffffff0219169055600382015f9055505060035f8481526020019081526020015f205f610cf29190610fe1565b3373ffffffffffffffffffffffffffffffffffffffff167fc1813b1067fbbafd5f412bb7fec63c03ce6188a6e44972c33996cfe976837be884604051610d38919061124a565b60405180910390a26001915050919050565b6003602052815f5260405f208181548110610d63575f80fd5b905f5260205f2090600302015f9150915050805f018054610d83906115be565b80601f0160208091040260200160405190810160405280929190818152602001828054610daf906115be565b8015610dfa5780601f10610dd157610100808354040283529160200191610dfa565b820191905f5260205f20905b815481529060010190602001808311610ddd57829003601f168201915b505050505090806001015f9054906101000a900473ffffffffffffffffffffffffffffffffffffffff16908060020154905083565b5f5f9054906101000a900473ffffffffffffffffffffffffffffffffffffffff1673ffffffffffffffffffffffffffffffffffffffff163373ffffffffffffffffffffffffffffffffffffffff1614610ebd576040517f08c379a0000000000000000000000000000000000000000000000000000000008152600401610eb4906119ad565b60405180910390fd5b5f73ffffffffffffffffffffffffffffffffffffffff168173ffffffffffffffffffffffffffffffffffffffff1603610f2b576040517f08c379a0000000000000000000000000000000000000000000000000000000008152600401610f2290611b18565b60405180910390fd5b805f5f6101000a81548173ffffffffffffffffffffffffffffffffffffffff021916908373ffffffffffffffffffffffffffffffffffffffff1602179055507f625bd3fb34e1545f666433e6eebe7ad511675233fca59a98eb50ebceb2a1d13581604051610f999190611473565b60405180910390a150565b508054610fb0906115be565b5f825580601f10610fc15750610fde565b601f0160209004905f5260205f2090810190610fdd9190611002565b5b50565b5080545f8255600302905f5260205f2090810190610fff919061101d565b50565b5b80821115611019575f815f905550600101611003565b5090565b5b8082111561106b575f5f82015f6110359190610fa4565b600182015f6101000a81549073ffffffffffffffffffffffffffffffffffffffff0219169055600282015f90555060030161101e565b5090565b5f604051905090565b5f5ffd5b5f5ffd5b5f5ffd5b5f5ffd5b5f601f19601f8301169050919050565b7f4e487b71000000000000000000000000000000000000000000000000000000005f52604160045260245ffd5b6110ce82611088565b810181811067ffffffffffffffff821117156110ed576110ec611098565b5b80604052505050565b5f6110ff61106f565b905061110b82826110c5565b919050565b5f67ffffffffffffffff82111561112a57611129611098565b5b61113382611088565b9050602081019050919050565b828183375f83830152505050565b5f61116061115b84611110565b6110f6565b90508281526020810184848401111561117c5761117b611084565b5b611187848285611140565b509392505050565b5f82601f8301126111a3576111a2611080565b5b81356111b384826020860161114e565b91505092915050565b5f5f604083850312156111d2576111d1611078565b5b5f83013567ffffffffffffffff8111156111ef576111ee61107c565b5b6111fb8582860161118f565b925050602083013567ffffffffffffffff81111561121c5761121b61107c565b5b6112288582860161118f565b9150509250929050565b5f819050919050565b61124481611232565b82525050565b5f60208201905061125d5f83018461123b565b92915050565b61126c81611232565b8114611276575f5ffd5b50565b5f8135905061128781611263565b92915050565b5f5f604083850312156112a3576112a2611078565b5b5f6112b085828601611279565b92505060206112c185828601611279565b9150509250929050565b5f8115159050919050565b6112df816112cb565b82525050565b5f6020820190506112f85f8301846112d6565b92915050565b5f6020828403121561131357611312611078565b5b5f61132084828501611279565b91505092915050565b5f81519050919050565b5f82825260208201905092915050565b8281835e5f83830152505050565b5f61135b82611329565b6113658185611333565b9350611375818560208601611343565b61137e81611088565b840191505092915050565b5f73ffffffffffffffffffffffffffffffffffffffff82169050919050565b5f6113b282611389565b9050919050565b6113c2816113a8565b82525050565b5f6080820190508181035f8301526113e08187611351565b905081810360208301526113f48186611351565b905061140360408301856113b9565b611410606083018461123b565b95945050505050565b5f5f6040838503121561142f5761142e611078565b5b5f83013567ffffffffffffffff81111561144c5761144b61107c565b5b6114588582860161118f565b925050602061146985828601611279565b9150509250929050565b5f6020820190506114865f8301846113b9565b92915050565b5f6060820190508181035f8301526114a48186611351565b90506114b360208301856113b9565b6114c0604083018461123b565b949350505050565b6114d1816113a8565b81146114db575f5ffd5b50565b5f813590506114ec816114c8565b92915050565b5f6020828403121561150757611506611078565b5b5f611514848285016114de565b91505092915050565b7f4e487b71000000000000000000000000000000000000000000000000000000005f52601160045260245ffd5b5f61155482611232565b91507fffffffffffffffffffffffffffffffffffffffffffffffffffffffffffffffff82036115865761158561151d565b5b600182019050919050565b7f4e487b71000000000000000000000000000000000000000000000000000000005f52602260045260245ffd5b5f60028204905060018216806115d557607f821691505b6020821081036115e8576115e7611591565b5b50919050565b5f819050815f5260205f209050919050565b5f6020601f8301049050919050565b5f82821b905092915050565b5f6008830261164a7fffffffffffffffffffffffffffffffffffffffffffffffffffffffffffffffff8261160f565b611654868361160f565b95508019841693508086168417925050509392505050565b5f819050919050565b5f61168f61168a61168584611232565b61166c565b611232565b9050919050565b5f819050919050565b6116a883611675565b6116bc6116b482611696565b84845461161b565b825550505050565b5f5f905090565b6116d36116c4565b6116de81848461169f565b505050565b5b81811015611701576116f65f826116cb565b6001810190506116e4565b5050565b601f82111561174657611717816115ee565b61172084611600565b8101602085101561172f578190505b61174361173b85611600565b8301826116e3565b50505b505050565b5f82821c905092915050565b5f6117665f198460080261174b565b1980831691505092915050565b5f61177e8383611757565b9150826002028217905092915050565b61179782611329565b67ffffffffffffffff8111156117b0576117af611098565b5b6117ba82546115be565b6117c5828285611705565b5f60209050601f8311600181146117f6575f84156117e4578287015190505b6117ee8582611773565b865550611855565b601f198416611804866115ee565b5f5b8281101561182b57848901518255600182019150602085019450602081019050611806565b868310156118485784890151611844601f891682611757565b8355505b6001600288020188555050505b505050505050565b5f6060820190506118705f83018661123b565b81810360208301526118828185611351565b905081810360408301526118968184611351565b9050949350505050565b7f4e487b71000000000000000000000000000000000000000000000000000000005f52603260045260245ffd5b7f596f7520646f6e27742068617665207065726d697373696f6e000000000000005f82015250565b5f611901601983611333565b915061190c826118cd565b602082019050919050565b5f6020820190508181035f83015261192e816118f5565b9050919050565b5f6040820190508181035f83015261194d8185611351565b905061195c602083018461123b565b9392505050565b7f596f7520646f6e277420686176652061636365737320746f20646f20746869735f82015250565b5f611997602083611333565b91506119a282611963565b602082019050919050565b5f6020820190508181035f8301526119c48161198b565b9050919050565b7f4e6f206472616d610000000000000000000000000000000000000000000000005f82015250565b5f6119ff600883611333565b9150611a0a826119cb565b602082019050919050565b5f6020820190508181035f830152611a2c816119f3565b9050919050565b5f611a3d82611232565b9150611a4883611232565b9250828203905081811115611a6057611a5f61151d565b5b92915050565b7f4472616d61206e6f7420666f756e6400000000000000000000000000000000005f82015250565b5f611a9a600f83611333565b9150611aa582611a66565b602082019050919050565b5f6020820190508181035f830152611ac781611a8e565b9050919050565b7f4e756c6c65642061646472657373206e6f7420616c6c6f7765640000000000005f82015250565b5f611b02601a83611333565b9150611b0d82611ace565b602082019050919050565b5f6020820190508181035f830152611b2f81611af6565b905091905056fea2646970667358221220fdaf86e5f6c446f95fa5c3a40e2118bf90c1aed9b76cd9d314d616e5b34f761464736f6c634300081e0033",
  "immutableReferences": {},
  "source": "// SPDX-License-Identifier: MIT\npragma solidity ^0.8.0;\n\nimport \"./Ownable.sol\";\n\ncontract DramaSocmed is Ownable {\n    event DramaBaru(\n        uint256 id,\n        string kode,\n        string deskripsi,\n        address indexed pembuat\n    );\n    event TopikBaru(string link, uint256 idDrama, address indexed pembuat);\n    event HapusTopik(string link, uint256 idDrama, address indexed pembuat);\n    event HapusDrama(uint256 id, address indexed penghapus);\n\n    struct Drama {\n        string kode;\n        string deskripsi;\n        address pembuat;\n        uint256 waktu;\n    }\n\n    struct Topic {\n        string link;\n        address pembuat;\n        uint256 waktu;\n    }\n\n    uint256 public lastId;\n    mapping(uint256 => Drama) public drama;\n    mapping(uint256 => Topic[]) public topics;\n\n    function tambahDramaBaru(\n        string memory kode,\n        string memory deskripsi\n    ) external returns (uint256) {\n        Drama memory newDrama = Drama({\n            kode: kode,\n            deskripsi: deskripsi,\n            pembuat: msg.sender,\n            waktu: block.timestamp\n        });\n\n        lastId++;\n        drama[lastId] = newDrama;\n\n        emit DramaBaru(lastId, kode, deskripsi, msg.sender);\n\n        return lastId;\n    }\n\n    function tambahTopikDrama(\n        string memory link,\n        uint256 idDrama\n    ) external returns (uint256) {\n        require(drama[idDrama].waktu > 0, \"No drama\");\n\n        Topic memory newTopic = Topic({\n            link: link,\n            pembuat: msg.sender,\n            waktu: block.timestamp\n        });\n\n        topics[idDrama].push(newTopic);\n\n        emit TopikBaru(link, idDrama, msg.sender);\n\n        return topics[idDrama].length - 1;\n    }\n\n    function hapusTopikDrama(\n        uint256 idDrama,\n        uint256 idTopik\n    ) external returns (bool) {\n        require(\n            topics[idDrama][idTopik].pembuat == msg.sender,\n            \"You don't have permission\"\n        );\n\n        string memory link = topics[idDrama][idTopik].link;\n        delete topics[idDrama][idTopik];\n\n        emit HapusTopik(link, idDrama, msg.sender);\n\n        return true;\n    }\n\n    function hapusDrama(uint256 idDrama) external returns (bool) {\n        Drama memory targetDrama = drama[idDrama];\n        require(targetDrama.waktu > 0, \"Drama not found\");\n        require(\n            msg.sender == targetDrama.pembuat || msg.sender == _owner,\n            \"You don't have permission\"\n        );\n\n        delete drama[idDrama];\n        delete topics[idDrama];\n\n        emit HapusDrama(idDrama, msg.sender);\n\n        return true;\n    }\n}\n",
  "sourcePath": "/home/superxdev/Projects/open-source/drama-socmed/contracts/DramaSocmed.sol",
  "compiler": {
    "name": "solc",
    "version": "0.8.30+commit.73712a01.Emscripten.clang"
  },
  "schemaVersion": "3.4.16",
  "updatedAt": "2025-05-12T16:29:04.127Z",
  "devdoc": {
    "kind": "dev",
    "methods": {},
    "version": 1
  },
  "userdoc": {
    "kind": "user",
    "methods": {},
    "version": 1
  }
}