{
  "contractName": "DramaSocmed",
  "abi": [
    {
      "inputs": [
        {
          "internalType": "uint256",
          "name": "",
          "type": "uint256"
        }
      ],
      "name": "drama",
      "outputs": [
        {
          "internalType": "string",
          "name": "kode",
          "type": "string"
        },
        {
          "internalType": "string",
          "name": "deskripsi",
          "type": "string"
        },
        {
          "internalType": "address",
          "name": "pembuat",
          "type": "address"
        },
        {
          "internalType": "uint256",
          "name": "waktu",
          "type": "uint256"
        }
      ],
      "stateMutability": "view",
      "type": "function",
      "constant": true
    },
    {
      "inputs": [],
      "name": "lastId",
      "outputs": [
        {
          "internalType": "uint256",
          "name": "",
          "type": "uint256"
        }
      ],
      "stateMutability": "view",
      "type": "function",
      "constant": true
    },
    {
      "inputs": [
        {
          "internalType": "uint256",
          "name": "",
          "type": "uint256"
        },
        {
          "internalType": "uint256",
          "name": "",
          "type": "uint256"
        }
      ],
      "name": "topics",
      "outputs": [
        {
          "internalType": "string",
          "name": "link",
          "type": "string"
        },
        {
          "internalType": "address",
          "name": "pembuat",
          "type": "address"
        },
        {
          "internalType": "uint256",
          "name": "waktu",
          "type": "uint256"
        }
      ],
      "stateMutability": "view",
      "type": "function",
      "constant": true
    },
    {
      "inputs": [
        {
          "internalType": "string",
          "name": "kode",
          "type": "string"
        },
        {
          "internalType": "string",
          "name": "deskripsi",
          "type": "string"
        }
      ],
      "name": "tambahDramaBaru",
      "outputs": [
        {
          "internalType": "uint256",
          "name": "",
          "type": "uint256"
        }
      ],
      "stateMutability": "nonpayable",
      "type": "function"
    },
    {
      "inputs": [
        {
          "internalType": "string",
          "name": "link",
          "type": "string"
        },
        {
          "internalType": "uint256",
          "name": "idDrama",
          "type": "uint256"
        }
      ],
      "name": "tambahTopikDrama",
      "outputs": [
        {
          "internalType": "uint256",
          "name": "",
          "type": "uint256"
        }
      ],
      "stateMutability": "nonpayable",
      "type": "function"
    },
    {
      "inputs": [
        {
          "internalType": "uint256",
          "name": "idDrama",
          "type": "uint256"
        },
        {
          "internalType": "uint256",
          "name": "idTopik",
          "type": "uint256"
        }
      ],
      "name": "hapusTopikDrama",
      "outputs": [
        {
          "internalType": "bool",
          "name": "",
          "type": "bool"
        }
      ],
      "stateMutability": "nonpayable",
      "type": "function"
    },
    {
      "inputs": [],
      "name": "destroyContract",
      "outputs": [],
      "stateMutability": "nonpayable",
      "type": "function"
    }
  ],
  "bytecode": "0x608060405234801561001057600080fd5b50336000806101000a81548173ffffffffffffffffffffffffffffffffffffffff021916908373ffffffffffffffffffffffffffffffffffffffff160217905550610dc5806100606000396000f3fe608060405234801561001057600080fd5b506004361061007d5760003560e01c80634498548f1161005b5780634498548f146102405780639c9e485314610377578063c1292cc314610450578063ed2e39a71461046e5761007d565b8063092a5cce146100825780633308315d1461008c578063410fd166146101f2575b600080fd5b61008a610543565b005b6101dc600480360360408110156100a257600080fd5b81019080803590602001906401000000008111156100bf57600080fd5b8201836020820111156100d157600080fd5b803590602001918460018302840111640100000000831117156100f357600080fd5b91908080601f016020809104026020016040519081016040528093929190818152602001838380828437600081840152601f19601f8201169050808301925050505050505091929192908035906020019064010000000081111561015657600080fd5b82018360208201111561016857600080fd5b8035906020019184600183028401116401000000008311171561018a57600080fd5b91908080601f016020809104026020016040519081016040528093929190818152602001838380828437600081840152601f19601f82011690508083019250505050505050919291929050505061061d565b6040518082815260200191505060405180910390f35b6102286004803603604081101561020857600080fd5b81019080803590602001909291908035906020019092919050505061071b565b60405180821515815260200191505060405180910390f35b61026c6004803603602081101561025657600080fd5b8101908080359060200190929190505050610885565b6040518080602001806020018573ffffffffffffffffffffffffffffffffffffffff168152602001848152602001838103835287818151815260200191508051906020019080838360005b838110156102d25780820151818401526020810190506102b7565b50505050905090810190601f1680156102ff5780820380516001836020036101000a031916815260200191505b50838103825286818151815260200191508051906020019080838360005b8381101561033857808201518184015260208101905061031d565b50505050905090810190601f1680156103655780820380516001836020036101000a031916815260200191505b50965050505050505060405180910390f35b61043a6004803603604081101561038d57600080fd5b81019080803590602001906401000000008111156103aa57600080fd5b8201836020820111156103bc57600080fd5b803590602001918460018302840111640100000000831117156103de57600080fd5b91908080601f016020809104026020016040519081016040528093929190818152602001838380828437600081840152601f19601f82011690508083019250505050505050919291929080359060200190929190505050610a05565b6040518082815260200191505060405180910390f35b610458610b97565b6040518082815260200191505060405180910390f35b6104a46004803603604081101561048457600080fd5b810190808035906020019092919080359060200190929190505050610b9d565b60405180806020018473ffffffffffffffffffffffffffffffffffffffff168152602001838152602001828103825285818151815260200191508051906020019080838360005b838110156105065780820151818401526020810190506104eb565b50505050905090810190601f1680156105335780820380516001836020036101000a031916815260200191505b5094505050505060405180910390f35b60008054906101000a900473ffffffffffffffffffffffffffffffffffffffff1673ffffffffffffffffffffffffffffffffffffffff163373ffffffffffffffffffffffffffffffffffffffff1614610604576040517f08c379a00000000000000000000000000000000000000000000000000000000081526004018080602001828103825260208152602001807f596f7520646f6e277420686176652061636365737320746f20646f207468697381525060200191505060405180910390fd5b3373ffffffffffffffffffffffffffffffffffffffff16ff5b60008060405180608001604052808581526020018481526020013373ffffffffffffffffffffffffffffffffffffffff16815260200142815250905060016000815480929190600101919050555080600260006001548152602001908152602001600020600082015181600001908051906020019061069d929190610c9c565b5060208201518160010190805190602001906106ba929190610c9c565b5060408201518160020160006101000a81548173ffffffffffffffffffffffffffffffffffffffff021916908373ffffffffffffffffffffffffffffffffffffffff1602179055506060820151816003015590505060015491505092915050565b60003373ffffffffffffffffffffffffffffffffffffffff1660036000858152602001908152602001600020838154811061075257fe5b906000526020600020906003020160010160009054906101000a900473ffffffffffffffffffffffffffffffffffffffff1673ffffffffffffffffffffffffffffffffffffffff161461080d576040517f08c379a00000000000000000000000000000000000000000000000000000000081526004018080602001828103825260198152602001807f596f7520646f6e27742068617665207065726d697373696f6e0000000000000081525060200191505060405180910390fd5b60036000848152602001908152602001600020828154811061082b57fe5b90600052602060002090600302016000808201600061084a9190610d2a565b6001820160006101000a81549073ffffffffffffffffffffffffffffffffffffffff0219169055600282016000905550506001905092915050565b6002602052806000526040600020600091509050806000018054600181600116156101000203166002900480601f0160208091040260200160405190810160405280929190818152602001828054600181600116156101000203166002900480156109315780601f1061090657610100808354040283529160200191610931565b820191906000526020600020905b81548152906001019060200180831161091457829003601f168201915b505050505090806001018054600181600116156101000203166002900480601f0160208091040260200160405190810160405280929190818152602001828054600181600116156101000203166002900480156109cf5780601f106109a4576101008083540402835291602001916109cf565b820191906000526020600020905b8154815290600101906020018083116109b257829003601f168201915b5050505050908060020160009054906101000a900473ffffffffffffffffffffffffffffffffffffffff16908060030154905084565b600080600260008481526020019081526020016000206003015411610a92576040517f08c379a00000000000000000000000000000000000000000000000000000000081526004018080602001828103825260088152602001807f4e6f206472616d6100000000000000000000000000000000000000000000000081525060200191505060405180910390fd5b600060405180606001604052808581526020013373ffffffffffffffffffffffffffffffffffffffff168152602001428152509050600360008481526020019081526020016000208190806001815401808255809150506001900390600052602060002090600302016000909190919091506000820151816000019080519060200190610b20929190610c9c565b5060208201518160010160006101000a81548173ffffffffffffffffffffffffffffffffffffffff021916908373ffffffffffffffffffffffffffffffffffffffff160217905550604082015181600201555050600160036000858152602001908152602001600020805490500391505092915050565b60015481565b60036020528160005260406000208181548110610bb957600080fd5b906000526020600020906003020160009150915050806000018054600181600116156101000203166002900480601f016020809104026020016040519081016040528092919081815260200182805460018160011615610100020316600290048015610c665780601f10610c3b57610100808354040283529160200191610c66565b820191906000526020600020905b815481529060010190602001808311610c4957829003601f168201915b5050505050908060010160009054906101000a900473ffffffffffffffffffffffffffffffffffffffff16908060020154905083565b828054600181600116156101000203166002900490600052602060002090601f016020900481019282610cd25760008555610d19565b82601f10610ceb57805160ff1916838001178555610d19565b82800160010185558215610d19579182015b82811115610d18578251825591602001919060010190610cfd565b5b509050610d269190610d72565b5090565b50805460018160011615610100020316600290046000825580601f10610d505750610d6f565b601f016020900490600052602060002090810190610d6e9190610d72565b5b50565b5b80821115610d8b576000816000905550600101610d73565b509056fea2646970667358221220ad14e799573b0bd1c4e9cd692beda422d805daa5f56e59bf30f5814a52738d6f64736f6c63430007060033",
  "immutableReferences": {},
  "source": "// SPDX-License-Identifier: MIT\npragma solidity ^0.7.0;\n\ncontract Ownable {\n    address _owner;\n\n    constructor() {\n        _owner = msg.sender;\n    }\n\n    modifier onlyOwner {\n        require(msg.sender == _owner, \"You don't have access to do this\");\n        _;\n    }\n}\n\ncontract DramaSocmed is Ownable {\n    struct Drama {\n        string kode;\n        string deskripsi;\n        address pembuat;\n        uint256 waktu;\n    }\n\n    struct Topic {\n        string link;\n        address pembuat;\n        uint256 waktu;\n    }\n\n    uint256 public lastId;\n    mapping(uint256 => Drama) public drama;\n    mapping(uint256 => Topic[]) public topics;\n\n    function tambahDramaBaru(string memory kode, string memory deskripsi) external returns (uint256) {\n        Drama memory newDrama = Drama({\n            kode: kode,\n            deskripsi: deskripsi,\n            pembuat: msg.sender,\n            waktu: block.timestamp\n        });\n\n        lastId++;\n        drama[lastId] = newDrama;\n\n        return lastId;\n    }\n\n    function tambahTopikDrama(string memory link, uint256 idDrama) external returns (uint256) {\n        require(drama[idDrama].waktu > 0, \"No drama\");\n        \n        Topic memory newTopic = Topic({\n            link: link,\n            pembuat: msg.sender,\n            waktu: block.timestamp\n        });\n\n        topics[idDrama].push(newTopic);\n\n        return topics[idDrama].length - 1;\n    }\n\n    function hapusTopikDrama(uint256 idDrama, uint256 idTopik) external returns (bool) {\n        require(topics[idDrama][idTopik].pembuat == msg.sender, \"You don't have permission\");\n\n        delete topics[idDrama][idTopik];\n\n        return true;\n    }\n\n    function destroyContract() public onlyOwner {\n        selfdestruct(msg.sender);\n    }\n}",
  "sourcePath": "/home/superxdev/Projects/open-source/drama-socmed/contracts/DramaSocmed.sol",
  "compiler": {
    "name": "solc",
    "version": "0.7.6+commit.7338295f.Emscripten.clang"
  },
  "schemaVersion": "3.4.16",
  "updatedAt": "2024-05-25T12:12:33.503Z",
  "networkType": "ethereum",
  "devdoc": {
    "kind": "dev",
    "methods": {},
    "version": 1
  },
  "userdoc": {
    "kind": "user",
    "methods": {},
    "version": 1
  }
}