{
  "contractName": "DramaSocmed",
  "abi": [
    {
      "anonymous": false,
      "inputs": [
        {
          "indexed": false,
          "internalType": "uint256",
          "name": "id",
          "type": "uint256"
        },
        {
          "indexed": false,
          "internalType": "string",
          "name": "kode",
          "type": "string"
        },
        {
          "indexed": false,
          "internalType": "string",
          "name": "deskripsi",
          "type": "string"
        },
        {
          "indexed": true,
          "internalType": "address",
          "name": "pembuat",
          "type": "address"
        }
      ],
      "name": "DramaBaru",
      "type": "event"
    },
    {
      "anonymous": false,
      "inputs": [
        {
          "indexed": false,
          "internalType": "string",
          "name": "link",
          "type": "string"
        },
        {
          "indexed": false,
          "internalType": "uint256",
          "name": "idDrama",
          "type": "uint256"
        },
        {
          "indexed": true,
          "internalType": "address",
          "name": "pembuat",
          "type": "address"
        }
      ],
      "name": "HapusTopik",
      "type": "event"
    },
    {
      "anonymous": false,
      "inputs": [],
      "name": "RenounceOwnership",
      "type": "event"
    },
    {
      "anonymous": false,
      "inputs": [
        {
          "indexed": false,
          "internalType": "string",
          "name": "link",
          "type": "string"
        },
        {
          "indexed": false,
          "internalType": "uint256",
          "name": "idDrama",
          "type": "uint256"
        },
        {
          "indexed": true,
          "internalType": "address",
          "name": "pembuat",
          "type": "address"
        }
      ],
      "name": "TopikBaru",
      "type": "event"
    },
    {
      "anonymous": false,
      "inputs": [
        {
          "indexed": false,
          "internalType": "address",
          "name": "newOwner",
          "type": "address"
        }
      ],
      "name": "TransferOWnership",
      "type": "event"
    },
    {
      "inputs": [],
      "name": "_owner",
      "outputs": [
        {
          "internalType": "address",
          "name": "",
          "type": "address"
        }
      ],
      "stateMutability": "view",
      "type": "function",
      "constant": true
    },
    {
      "inputs": [
        {
          "internalType": "uint256",
          "name": "",
          "type": "uint256"
        }
      ],
      "name": "drama",
      "outputs": [
        {
          "internalType": "string",
          "name": "kode",
          "type": "string"
        },
        {
          "internalType": "string",
          "name": "deskripsi",
          "type": "string"
        },
        {
          "internalType": "address",
          "name": "pembuat",
          "type": "address"
        },
        {
          "internalType": "uint256",
          "name": "waktu",
          "type": "uint256"
        }
      ],
      "stateMutability": "view",
      "type": "function",
      "constant": true
    },
    {
      "inputs": [],
      "name": "lastId",
      "outputs": [
        {
          "internalType": "uint256",
          "name": "",
          "type": "uint256"
        }
      ],
      "stateMutability": "view",
      "type": "function",
      "constant": true
    },
    {
      "inputs": [],
      "name": "renounceOwnership",
      "outputs": [],
      "stateMutability": "nonpayable",
      "type": "function"
    },
    {
      "inputs": [
        {
          "internalType": "uint256",
          "name": "",
          "type": "uint256"
        },
        {
          "internalType": "uint256",
          "name": "",
          "type": "uint256"
        }
      ],
      "name": "topics",
      "outputs": [
        {
          "internalType": "string",
          "name": "link",
          "type": "string"
        },
        {
          "internalType": "address",
          "name": "pembuat",
          "type": "address"
        },
        {
          "internalType": "uint256",
          "name": "waktu",
          "type": "uint256"
        }
      ],
      "stateMutability": "view",
      "type": "function",
      "constant": true
    },
    {
      "inputs": [
        {
          "internalType": "address",
          "name": "ownerAddress",
          "type": "address"
        }
      ],
      "name": "transferOwnership",
      "outputs": [],
      "stateMutability": "nonpayable",
      "type": "function"
    },
    {
      "inputs": [
        {
          "internalType": "string",
          "name": "kode",
          "type": "string"
        },
        {
          "internalType": "string",
          "name": "deskripsi",
          "type": "string"
        }
      ],
      "name": "tambahDramaBaru",
      "outputs": [
        {
          "internalType": "uint256",
          "name": "",
          "type": "uint256"
        }
      ],
      "stateMutability": "nonpayable",
      "type": "function"
    },
    {
      "inputs": [
        {
          "internalType": "string",
          "name": "link",
          "type": "string"
        },
        {
          "internalType": "uint256",
          "name": "idDrama",
          "type": "uint256"
        }
      ],
      "name": "tambahTopikDrama",
      "outputs": [
        {
          "internalType": "uint256",
          "name": "",
          "type": "uint256"
        }
      ],
      "stateMutability": "nonpayable",
      "type": "function"
    },
    {
      "inputs": [
        {
          "internalType": "uint256",
          "name": "idDrama",
          "type": "uint256"
        },
        {
          "internalType": "uint256",
          "name": "idTopik",
          "type": "uint256"
        }
      ],
      "name": "hapusTopikDrama",
      "outputs": [
        {
          "internalType": "bool",
          "name": "",
          "type": "bool"
        }
      ],
      "stateMutability": "nonpayable",
      "type": "function"
    },
    {
      "inputs": [],
      "name": "destroyContract",
      "outputs": [],
      "stateMutability": "nonpayable",
      "type": "function"
    }
  ],
  "bytecode": "0x608060405234801561001057600080fd5b50336000806101000a81548173ffffffffffffffffffffffffffffffffffffffff021916908373ffffffffffffffffffffffffffffffffffffffff16021790555061151d806100606000396000f3fe608060405234801561001057600080fd5b506004361061009e5760003560e01c80639c9e4853116100665780639c9e4853146103a2578063b2bdfa7b1461047b578063c1292cc3146104af578063ed2e39a7146104cd578063f2fde38b146105a25761009e565b8063092a5cce146100a35780633308315d146100ad578063410fd166146102135780634498548f14610261578063715018a614610398575b600080fd5b6100ab6105e6565b005b6101fd600480360360408110156100c357600080fd5b81019080803590602001906401000000008111156100e057600080fd5b8201836020820111156100f257600080fd5b8035906020019184600183028401116401000000008311171561011457600080fd5b91908080601f016020809104026020016040519081016040528093929190818152602001838380828437600081840152601f19601f8201169050808301925050505050505091929192908035906020019064010000000081111561017757600080fd5b82018360208201111561018957600080fd5b803590602001918460018302840111640100000000831117156101ab57600080fd5b91908080601f016020809104026020016040519081016040528093929190818152602001838380828437600081840152601f19601f8201169050808301925050505050505091929192905050506106c0565b6040518082815260200191505060405180910390f35b6102496004803603604081101561022957600080fd5b8101908080359060200190929190803590602001909291905050506108e8565b60405180821515815260200191505060405180910390f35b61028d6004803603602081101561027757600080fd5b8101908080359060200190929190505050610bda565b6040518080602001806020018573ffffffffffffffffffffffffffffffffffffffff168152602001848152602001838103835287818151815260200191508051906020019080838360005b838110156102f35780820151818401526020810190506102d8565b50505050905090810190601f1680156103205780820380516001836020036101000a031916815260200191505b50838103825286818151815260200191508051906020019080838360005b8381101561035957808201518184015260208101905061033e565b50505050905090810190601f1680156103865780820380516001836020036101000a031916815260200191505b50965050505050505060405180910390f35b6103a0610d5a565b005b610465600480360360408110156103b857600080fd5b81019080803590602001906401000000008111156103d557600080fd5b8201836020820111156103e757600080fd5b8035906020019184600183028401116401000000008311171561040957600080fd5b91908080601f016020809104026020016040519081016040528093929190818152602001838380828437600081840152601f19601f82011690508083019250505050505050919291929080359060200190929190505050610e8a565b6040518082815260200191505060405180910390f35b6104836110d7565b604051808273ffffffffffffffffffffffffffffffffffffffff16815260200191505060405180910390f35b6104b76110fb565b6040518082815260200191505060405180910390f35b610503600480360360408110156104e357600080fd5b810190808035906020019092919080359060200190929190505050611101565b60405180806020018473ffffffffffffffffffffffffffffffffffffffff168152602001838152602001828103825285818151815260200191508051906020019080838360005b8381101561056557808201518184015260208101905061054a565b50505050905090810190601f1680156105925780820380516001836020036101000a031916815260200191505b5094505050505060405180910390f35b6105e4600480360360208110156105b857600080fd5b81019080803573ffffffffffffffffffffffffffffffffffffffff169060200190929190505050611200565b005b60008054906101000a900473ffffffffffffffffffffffffffffffffffffffff1673ffffffffffffffffffffffffffffffffffffffff163373ffffffffffffffffffffffffffffffffffffffff16146106a7576040517f08c379a00000000000000000000000000000000000000000000000000000000081526004018080602001828103825260208152602001807f596f7520646f6e277420686176652061636365737320746f20646f207468697381525060200191505060405180910390fd5b3373ffffffffffffffffffffffffffffffffffffffff16ff5b60008060405180608001604052808581526020018481526020013373ffffffffffffffffffffffffffffffffffffffff1681526020014281525090506001600081548092919060010191905055508060026000600154815260200190815260200160002060008201518160000190805190602001906107409291906113f4565b50602082015181600101908051906020019061075d9291906113f4565b5060408201518160020160006101000a81548173ffffffffffffffffffffffffffffffffffffffff021916908373ffffffffffffffffffffffffffffffffffffffff160217905550606082015181600301559050503373ffffffffffffffffffffffffffffffffffffffff167fe6d6104dc577db33dfeaadadf5f4e4050968ec46a00a9e7dd029736c15806a166001548686604051808481526020018060200180602001838103835285818151815260200191508051906020019080838360005b8381101561083957808201518184015260208101905061081e565b50505050905090810190601f1680156108665780820380516001836020036101000a031916815260200191505b50838103825284818151815260200191508051906020019080838360005b8381101561089f578082015181840152602081019050610884565b50505050905090810190601f1680156108cc5780820380516001836020036101000a031916815260200191505b509550505050505060405180910390a260015491505092915050565b60003373ffffffffffffffffffffffffffffffffffffffff1660036000858152602001908152602001600020838154811061091f57fe5b906000526020600020906003020160010160009054906101000a900473ffffffffffffffffffffffffffffffffffffffff1673ffffffffffffffffffffffffffffffffffffffff16146109da576040517f08c379a00000000000000000000000000000000000000000000000000000000081526004018080602001828103825260198152602001807f596f7520646f6e27742068617665207065726d697373696f6e0000000000000081525060200191505060405180910390fd5b60006003600085815260200190815260200160002083815481106109fa57fe5b90600052602060002090600302016000018054600181600116156101000203166002900480601f016020809104026020016040519081016040528092919081815260200182805460018160011615610100020316600290048015610a9f5780601f10610a7457610100808354040283529160200191610a9f565b820191906000526020600020905b815481529060010190602001808311610a8257829003601f168201915b50505050509050600360008581526020019081526020016000208381548110610ac457fe5b906000526020600020906003020160008082016000610ae39190611482565b6001820160006101000a81549073ffffffffffffffffffffffffffffffffffffffff0219169055600282016000905550503373ffffffffffffffffffffffffffffffffffffffff167f35afb10c40f7c2c38ae9705f5143ca0dfdfdaa51e3e9a2ee12ad43eed420bd7882866040518080602001838152602001828103825284818151815260200191508051906020019080838360005b83811015610b94578082015181840152602081019050610b79565b50505050905090810190601f168015610bc15780820380516001836020036101000a031916815260200191505b50935050505060405180910390a2600191505092915050565b6002602052806000526040600020600091509050806000018054600181600116156101000203166002900480601f016020809104026020016040519081016040528092919081815260200182805460018160011615610100020316600290048015610c865780601f10610c5b57610100808354040283529160200191610c86565b820191906000526020600020905b815481529060010190602001808311610c6957829003601f168201915b505050505090806001018054600181600116156101000203166002900480601f016020809104026020016040519081016040528092919081815260200182805460018160011615610100020316600290048015610d245780601f10610cf957610100808354040283529160200191610d24565b820191906000526020600020905b815481529060010190602001808311610d0757829003601f168201915b5050505050908060020160009054906101000a900473ffffffffffffffffffffffffffffffffffffffff16908060030154905084565b60008054906101000a900473ffffffffffffffffffffffffffffffffffffffff1673ffffffffffffffffffffffffffffffffffffffff163373ffffffffffffffffffffffffffffffffffffffff1614610e1b576040517f08c379a00000000000000000000000000000000000000000000000000000000081526004018080602001828103825260208152602001807f596f7520646f6e277420686176652061636365737320746f20646f207468697381525060200191505060405180910390fd5b60008060006101000a81548173ffffffffffffffffffffffffffffffffffffffff021916908373ffffffffffffffffffffffffffffffffffffffff1602179055507f6e4ee811a17215345b89e3506064ff2d62f4feedff3566e9d09219cda7e8cadb60405160405180910390a1565b600080600260008481526020019081526020016000206003015411610f17576040517f08c379a00000000000000000000000000000000000000000000000000000000081526004018080602001828103825260088152602001807f4e6f206472616d6100000000000000000000000000000000000000000000000081525060200191505060405180910390fd5b600060405180606001604052808581526020013373ffffffffffffffffffffffffffffffffffffffff168152602001428152509050600360008481526020019081526020016000208190806001815401808255809150506001900390600052602060002090600302016000909190919091506000820151816000019080519060200190610fa59291906113f4565b5060208201518160010160006101000a81548173ffffffffffffffffffffffffffffffffffffffff021916908373ffffffffffffffffffffffffffffffffffffffff1602179055506040820151816002015550503373ffffffffffffffffffffffffffffffffffffffff167fff9c5d5aad3506b6ae1e42eefcbf9e8ef2ec3489689c8a7abdc682f0fa244f6a85856040518080602001838152602001828103825284818151815260200191508051906020019080838360005b8381101561107957808201518184015260208101905061105e565b50505050905090810190601f1680156110a65780820380516001836020036101000a031916815260200191505b50935050505060405180910390a2600160036000858152602001908152602001600020805490500391505092915050565b60008054906101000a900473ffffffffffffffffffffffffffffffffffffffff1681565b60015481565b6003602052816000526040600020818154811061111d57600080fd5b906000526020600020906003020160009150915050806000018054600181600116156101000203166002900480601f0160208091040260200160405190810160405280929190818152602001828054600181600116156101000203166002900480156111ca5780601f1061119f576101008083540402835291602001916111ca565b820191906000526020600020905b8154815290600101906020018083116111ad57829003601f168201915b5050505050908060010160009054906101000a900473ffffffffffffffffffffffffffffffffffffffff16908060020154905083565b60008054906101000a900473ffffffffffffffffffffffffffffffffffffffff1673ffffffffffffffffffffffffffffffffffffffff163373ffffffffffffffffffffffffffffffffffffffff16146112c1576040517f08c379a00000000000000000000000000000000000000000000000000000000081526004018080602001828103825260208152602001807f596f7520646f6e277420686176652061636365737320746f20646f207468697381525060200191505060405180910390fd5b600073ffffffffffffffffffffffffffffffffffffffff168173ffffffffffffffffffffffffffffffffffffffff161415611364576040517f08c379a000000000000000000000000000000000000000000000000000000000815260040180806020018281038252601a8152602001807f4e756c6c65642061646472657373206e6f7420616c6c6f77656400000000000081525060200191505060405180910390fd5b806000806101000a81548173ffffffffffffffffffffffffffffffffffffffff021916908373ffffffffffffffffffffffffffffffffffffffff1602179055507f625bd3fb34e1545f666433e6eebe7ad511675233fca59a98eb50ebceb2a1d13581604051808273ffffffffffffffffffffffffffffffffffffffff16815260200191505060405180910390a150565b828054600181600116156101000203166002900490600052602060002090601f01602090048101928261142a5760008555611471565b82601f1061144357805160ff1916838001178555611471565b82800160010185558215611471579182015b82811115611470578251825591602001919060010190611455565b5b50905061147e91906114ca565b5090565b50805460018160011615610100020316600290046000825580601f106114a857506114c7565b601f0160209004906000526020600020908101906114c691906114ca565b5b50565b5b808211156114e35760008160009055506001016114cb565b509056fea2646970667358221220fd6da7bdee669f425a0e83af99bc8537503bd82f63a3c3941b03ac3d22b5a40064736f6c63430007060033",
  "immutableReferences": {},
  "source": "// SPDX-License-Identifier: MIT\npragma solidity ^0.7.0;\nimport \"./Ownable.sol\";\n\ncontract DramaSocmed is Ownable {\n    event DramaBaru(uint256 id, string kode, string deskripsi, address indexed pembuat);\n    event TopikBaru(string link, uint256 idDrama, address indexed pembuat);\n    event HapusTopik(string link, uint256 idDrama, address indexed pembuat);\n\n    struct Drama {\n        string kode;\n        string deskripsi;\n        address pembuat;\n        uint256 waktu;\n    }\n\n    struct Topic {\n        string link;\n        address pembuat;\n        uint256 waktu;\n    }\n\n    uint256 public lastId;\n    mapping(uint256 => Drama) public drama;\n    mapping(uint256 => Topic[]) public topics;\n\n    function tambahDramaBaru(string memory kode, string memory deskripsi) external returns (uint256) {\n        Drama memory newDrama = Drama({\n            kode: kode,\n            deskripsi: deskripsi,\n            pembuat: msg.sender,\n            waktu: block.timestamp\n        });\n\n        lastId++;\n        drama[lastId] = newDrama;\n\n        emit DramaBaru(lastId, kode, deskripsi, msg.sender);\n\n        return lastId;\n    }\n\n    function tambahTopikDrama(string memory link, uint256 idDrama) external returns (uint256) {\n        require(drama[idDrama].waktu > 0, \"No drama\");\n        \n        Topic memory newTopic = Topic({\n            link: link,\n            pembuat: msg.sender,\n            waktu: block.timestamp\n        });\n\n        topics[idDrama].push(newTopic);\n\n        emit TopikBaru(link, idDrama, msg.sender);\n\n        return topics[idDrama].length - 1;\n    }\n\n    function hapusTopikDrama(uint256 idDrama, uint256 idTopik) external returns (bool) {\n        require(topics[idDrama][idTopik].pembuat == msg.sender, \"You don't have permission\");\n\n        string memory link = topics[idDrama][idTopik].link;\n        delete topics[idDrama][idTopik];\n\n        emit HapusTopik(link, idDrama, msg.sender);\n\n        return true;\n    }\n\n    function destroyContract() public onlyOwner {\n        selfdestruct(msg.sender);\n    }\n}",
  "sourcePath": "/home/superxdev/Projects/open-source/drama-socmed/contracts/DramaSocmed.sol",
  "compiler": {
    "name": "solc",
    "version": "0.7.6+commit.7338295f.Emscripten.clang"
  },
  "schemaVersion": "3.4.16",
  "updatedAt": "2024-05-27T07:08:33.051Z",
  "networkType": "ethereum",
  "devdoc": {
    "kind": "dev",
    "methods": {},
    "version": 1
  },
  "userdoc": {
    "kind": "user",
    "methods": {},
    "version": 1
  }
}