{
  "contractName": "Ownable",
  "abi": [
    {
      "inputs": [],
      "stateMutability": "nonpayable",
      "type": "constructor"
    },
    {
      "anonymous": false,
      "inputs": [],
      "name": "RenounceOwnership",
      "type": "event"
    },
    {
      "anonymous": false,
      "inputs": [
        {
          "indexed": false,
          "internalType": "address",
          "name": "newOwner",
          "type": "address"
        }
      ],
      "name": "TransferOWnership",
      "type": "event"
    },
    {
      "inputs": [],
      "name": "_owner",
      "outputs": [
        {
          "internalType": "address",
          "name": "",
          "type": "address"
        }
      ],
      "stateMutability": "view",
      "type": "function"
    },
    {
      "inputs": [
        {
          "internalType": "address",
          "name": "ownerAddress",
          "type": "address"
        }
      ],
      "name": "transferOwnership",
      "outputs": [],
      "stateMutability": "nonpayable",
      "type": "function"
    },
    {
      "inputs": [],
      "name": "renounceOwnership",
      "outputs": [],
      "stateMutability": "nonpayable",
      "type": "function"
    }
  ],
  "bytecode": "0x608060405234801561001057600080fd5b50336000806101000a81548173ffffffffffffffffffffffffffffffffffffffff021916908373ffffffffffffffffffffffffffffffffffffffff160217905550610446806100606000396000f3fe608060405234801561001057600080fd5b50600436106100415760003560e01c8063715018a614610046578063b2bdfa7b14610050578063f2fde38b14610084575b600080fd5b61004e6100c8565b005b6100586101f8565b604051808273ffffffffffffffffffffffffffffffffffffffff16815260200191505060405180910390f35b6100c66004803603602081101561009a57600080fd5b81019080803573ffffffffffffffffffffffffffffffffffffffff16906020019092919050505061021c565b005b60008054906101000a900473ffffffffffffffffffffffffffffffffffffffff1673ffffffffffffffffffffffffffffffffffffffff163373ffffffffffffffffffffffffffffffffffffffff1614610189576040517f08c379a00000000000000000000000000000000000000000000000000000000081526004018080602001828103825260208152602001807f596f7520646f6e277420686176652061636365737320746f20646f207468697381525060200191505060405180910390fd5b60008060006101000a81548173ffffffffffffffffffffffffffffffffffffffff021916908373ffffffffffffffffffffffffffffffffffffffff1602179055507f6e4ee811a17215345b89e3506064ff2d62f4feedff3566e9d09219cda7e8cadb60405160405180910390a1565b60008054906101000a900473ffffffffffffffffffffffffffffffffffffffff1681565b60008054906101000a900473ffffffffffffffffffffffffffffffffffffffff1673ffffffffffffffffffffffffffffffffffffffff163373ffffffffffffffffffffffffffffffffffffffff16146102dd576040517f08c379a00000000000000000000000000000000000000000000000000000000081526004018080602001828103825260208152602001807f596f7520646f6e277420686176652061636365737320746f20646f207468697381525060200191505060405180910390fd5b600073ffffffffffffffffffffffffffffffffffffffff168173ffffffffffffffffffffffffffffffffffffffff161415610380576040517f08c379a000000000000000000000000000000000000000000000000000000000815260040180806020018281038252601a8152602001807f4e756c6c65642061646472657373206e6f7420616c6c6f77656400000000000081525060200191505060405180910390fd5b806000806101000a81548173ffffffffffffffffffffffffffffffffffffffff021916908373ffffffffffffffffffffffffffffffffffffffff1602179055507f625bd3fb34e1545f666433e6eebe7ad511675233fca59a98eb50ebceb2a1d13581604051808273ffffffffffffffffffffffffffffffffffffffff16815260200191505060405180910390a15056fea264697066735822122082b6f7ab7656a0b939b4db5fec391cce58a88a5b2d7d65618d405d7ad0d5ae3764736f6c63430007060033",
  "immutableReferences": {},
  "source": "// SPDX-License-Identifier: MIT\npragma solidity ^0.7.0;\n\ncontract Ownable {\n    address public _owner;\n\n    event TransferOWnership(address newOwner);\n    event RenounceOwnership();\n\n    constructor() {\n        _owner = msg.sender;\n    }\n\n    modifier onlyOwner {\n        require(msg.sender == _owner, \"You don't have access to do this\");\n        _;\n    }\n\n    function transferOwnership(address ownerAddress) public onlyOwner {\n        require(ownerAddress != address(0), \"Nulled address not allowed\");\n\n        _owner = ownerAddress;\n\n        emit TransferOWnership(ownerAddress);\n    }\n\n    function renounceOwnership() public onlyOwner {\n        _owner = address(0);\n\n        emit RenounceOwnership();\n    }\n}",
  "sourcePath": "/home/superxdev/Projects/open-source/drama-socmed/contracts/Ownable.sol",
  "compiler": {
    "name": "solc",
    "version": "0.7.6+commit.7338295f.Emscripten.clang"
  },
  "schemaVersion": "3.4.16",
  "updatedAt": "2024-05-27T07:08:32.367Z",
  "devdoc": {
    "kind": "dev",
    "methods": {},
    "version": 1
  },
  "userdoc": {
    "kind": "user",
    "methods": {},
    "version": 1
  }
}