{
  "contractName": "Ownable",
  "abi": [
    {
      "inputs": [],
      "stateMutability": "nonpayable",
      "type": "constructor"
    },
    {
      "anonymous": false,
      "inputs": [],
      "name": "RenounceOwnership",
      "type": "event"
    },
    {
      "anonymous": false,
      "inputs": [
        {
          "indexed": false,
          "internalType": "address",
          "name": "newOwner",
          "type": "address"
        }
      ],
      "name": "TransferOWnership",
      "type": "event"
    },
    {
      "inputs": [],
      "name": "_owner",
      "outputs": [
        {
          "internalType": "address",
          "name": "",
          "type": "address"
        }
      ],
      "stateMutability": "view",
      "type": "function"
    },
    {
      "inputs": [
        {
          "internalType": "address",
          "name": "ownerAddress",
          "type": "address"
        }
      ],
      "name": "transferOwnership",
      "outputs": [],
      "stateMutability": "nonpayable",
      "type": "function"
    },
    {
      "inputs": [],
      "name": "renounceOwnership",
      "outputs": [],
      "stateMutability": "nonpayable",
      "type": "function"
    }
  ],
  "bytecode": "0x6080604052348015600e575f5ffd5b50335f5f6101000a81548173ffffffffffffffffffffffffffffffffffffffff021916908373ffffffffffffffffffffffffffffffffffffffff1602179055506104e28061005b5f395ff3fe608060405234801561000f575f5ffd5b506004361061003f575f3560e01c8063715018a614610043578063b2bdfa7b1461004d578063f2fde38b1461006b575b5f5ffd5b61004b610087565b005b610055610182565b604051610062919061035a565b60405180910390f35b610085600480360381019061008091906103a1565b6101a6565b005b5f5f9054906101000a900473ffffffffffffffffffffffffffffffffffffffff1673ffffffffffffffffffffffffffffffffffffffff163373ffffffffffffffffffffffffffffffffffffffff1614610115576040517f08c379a000000000000000000000000000000000000000000000000000000000815260040161010c90610426565b60405180910390fd5b5f5f5f6101000a81548173ffffffffffffffffffffffffffffffffffffffff021916908373ffffffffffffffffffffffffffffffffffffffff1602179055507f6e4ee811a17215345b89e3506064ff2d62f4feedff3566e9d09219cda7e8cadb60405160405180910390a1565b5f5f9054906101000a900473ffffffffffffffffffffffffffffffffffffffff1681565b5f5f9054906101000a900473ffffffffffffffffffffffffffffffffffffffff1673ffffffffffffffffffffffffffffffffffffffff163373ffffffffffffffffffffffffffffffffffffffff1614610234576040517f08c379a000000000000000000000000000000000000000000000000000000000815260040161022b90610426565b60405180910390fd5b5f73ffffffffffffffffffffffffffffffffffffffff168173ffffffffffffffffffffffffffffffffffffffff16036102a2576040517f08c379a00000000000000000000000000000000000000000000000000000000081526004016102999061048e565b60405180910390fd5b805f5f6101000a81548173ffffffffffffffffffffffffffffffffffffffff021916908373ffffffffffffffffffffffffffffffffffffffff1602179055507f625bd3fb34e1545f666433e6eebe7ad511675233fca59a98eb50ebceb2a1d13581604051610310919061035a565b60405180910390a150565b5f73ffffffffffffffffffffffffffffffffffffffff82169050919050565b5f6103448261031b565b9050919050565b6103548161033a565b82525050565b5f60208201905061036d5f83018461034b565b92915050565b5f5ffd5b6103808161033a565b811461038a575f5ffd5b50565b5f8135905061039b81610377565b92915050565b5f602082840312156103b6576103b5610373565b5b5f6103c38482850161038d565b91505092915050565b5f82825260208201905092915050565b7f596f7520646f6e277420686176652061636365737320746f20646f20746869735f82015250565b5f6104106020836103cc565b915061041b826103dc565b602082019050919050565b5f6020820190508181035f83015261043d81610404565b9050919050565b7f4e756c6c65642061646472657373206e6f7420616c6c6f7765640000000000005f82015250565b5f610478601a836103cc565b915061048382610444565b602082019050919050565b5f6020820190508181035f8301526104a58161046c565b905091905056fea2646970667358221220e5d17d51409bdf30f3b623255582a677b5ecc76e2fc300a6bde4cf3d2d6ab0fd64736f6c634300081e0033",
  "immutableReferences": {},
  "source": "// SPDX-License-Identifier: MIT\npragma solidity ^0.8.0;\n\ncontract Ownable {\n    address public _owner;\n\n    event TransferOWnership(address newOwner);\n    event RenounceOwnership();\n\n    constructor() {\n        _owner = msg.sender;\n    }\n\n    modifier onlyOwner() {\n        require(msg.sender == _owner, \"You don't have access to do this\");\n        _;\n    }\n\n    function transferOwnership(address ownerAddress) public onlyOwner {\n        require(ownerAddress != address(0), \"Nulled address not allowed\");\n\n        _owner = ownerAddress;\n\n        emit TransferOWnership(ownerAddress);\n    }\n\n    function renounceOwnership() public onlyOwner {\n        _owner = address(0);\n\n        emit RenounceOwnership();\n    }\n}\n",
  "sourcePath": "/home/superxdev/Projects/open-source/drama-socmed/contracts/Ownable.sol",
  "compiler": {
    "name": "solc",
    "version": "0.8.30+commit.73712a01.Emscripten.clang"
  },
  "schemaVersion": "3.4.16",
  "updatedAt": "2025-05-12T16:29:04.135Z",
  "devdoc": {
    "kind": "dev",
    "methods": {},
    "version": 1
  },
  "userdoc": {
    "kind": "user",
    "methods": {},
    "version": 1
  }
}